{
  "contractName": "ArtMarket",
  "abi": [
    {
      "constant": true,
      "inputs": [
        {
          "name": "",
          "type": "uint256"
        }
      ],
      "name": "auctions",
      "outputs": [
        {
          "name": "itemID",
          "type": "uint256"
        },
        {
          "name": "created",
          "type": "uint256"
        },
        {
          "name": "duration",
          "type": "uint256"
        },
        {
          "name": "reserve",
          "type": "uint256"
        },
        {
          "name": "increment",
          "type": "uint256"
        },
        {
          "name": "curator",
          "type": "address"
        },
        {
          "name": "highestBid",
          "type": "uint256"
        },
        {
          "name": "highestBidder",
          "type": "address"
        },
        {
          "name": "closed",
          "type": "bool"
        }
      ],
      "payable": false,
      "stateMutability": "view",
      "type": "function"
    },
    {
      "constant": true,
      "inputs": [],
      "name": "auctionIndex",
      "outputs": [
        {
          "name": "",
          "type": "int256"
        }
      ],
      "payable": false,
      "stateMutability": "view",
      "type": "function"
    },
    {
      "constant": true,
      "inputs": [],
      "name": "owner",
      "outputs": [
        {
          "name": "",
          "type": "address"
        }
      ],
      "payable": false,
      "stateMutability": "view",
      "type": "function"
    },
    {
      "constant": true,
      "inputs": [
        {
          "name": "",
          "type": "uint256"
        }
      ],
      "name": "items",
      "outputs": [
        {
          "name": "title",
          "type": "string"
        },
        {
          "name": "blockstackUrl",
          "type": "string"
        },
        {
          "name": "hash",
          "type": "bytes32"
        },
        {
          "name": "ownerIndex",
          "type": "uint256"
        },
        {
          "name": "price",
          "type": "uint256"
        }
      ],
      "payable": false,
      "stateMutability": "view",
      "type": "function"
    },
    {
      "constant": true,
      "inputs": [],
      "name": "itemIndex",
      "outputs": [
        {
          "name": "",
          "type": "int256"
        }
      ],
      "payable": false,
      "stateMutability": "view",
      "type": "function"
    },
    {
      "inputs": [],
      "payable": false,
      "stateMutability": "nonpayable",
      "type": "constructor"
    },
    {
      "constant": false,
      "inputs": [
        {
          "name": "title",
          "type": "string"
        },
        {
          "name": "hash",
          "type": "bytes32"
        },
        {
          "name": "blockstackUrl",
          "type": "string"
        }
      ],
      "name": "addItem",
      "outputs": [],
      "payable": false,
      "stateMutability": "nonpayable",
      "type": "function"
    },
    {
      "constant": false,
      "inputs": [
        {
          "name": "itemID",
          "type": "uint256"
        }
      ],
      "name": "buy",
      "outputs": [],
      "payable": true,
      "stateMutability": "payable",
      "type": "function"
    },
    {
      "constant": false,
      "inputs": [
        {
          "name": "itemID",
          "type": "uint256"
        },
        {
          "name": "duration",
          "type": "uint256"
        }
      ],
      "name": "startAuction",
      "outputs": [],
      "payable": false,
      "stateMutability": "nonpayable",
      "type": "function"
    },
    {
      "constant": false,
      "inputs": [
        {
          "name": "auctionID",
          "type": "uint256"
        }
      ],
      "name": "closeAuction",
      "outputs": [],
      "payable": false,
      "stateMutability": "nonpayable",
      "type": "function"
    },
    {
      "constant": false,
      "inputs": [
        {
          "name": "auctionID",
          "type": "uint256"
        }
      ],
      "name": "reclaimEscrow",
      "outputs": [],
      "payable": false,
      "stateMutability": "nonpayable",
      "type": "function"
    },
    {
      "constant": false,
      "inputs": [
        {
          "name": "auctionID",
          "type": "uint256"
        }
      ],
      "name": "placeBid",
      "outputs": [],
      "payable": true,
      "stateMutability": "payable",
      "type": "function"
    }
  ],
  "bytecode": "0x60806040527fffffffffffffffffffffffffffffffffffffffffffffffffffffffffffffffff6002557fffffffffffffffffffffffffffffffffffffffffffffffffffffffffffffffff60055534801561005857600080fd5b50336000806101000a81548173ffffffffffffffffffffffffffffffffffffffff021916908373ffffffffffffffffffffffffffffffffffffffff160217905550611125806100a86000396000f3006080604052600436106100af576000357c0100000000000000000000000000000000000000000000000000000000900463ffffffff168063180dc8f7146100b45780631f9cc9af14610171578063236ed8f31461019e5780634fee13fc146101cb578063571a26a0146102025780637aacf03c146102d75780638da5cb5b146103025780639979ef4514610359578063bfb231d214610379578063d96a094a146104a8578063e07bb1a7146104c8575b600080fd5b3480156100c057600080fd5b5061016f600480360381019080803590602001908201803590602001908080601f01602080910402602001604051908101604052809392919081815260200183838082843782019150505050505091929192908035600019169060200190929190803590602001908201803590602001908080601f01602080910402602001604051908101604052809392919081815260200183838082843782019150505050505091929192905050506104f3565b005b34801561017d57600080fd5b5061019c60048036038101908080359060200190929190505050610674565b005b3480156101aa57600080fd5b506101c960048036038101908080359060200190929190505050610807565b005b3480156101d757600080fd5b506102006004803603810190808035906020019092919080359060200190929190505050610a70565b005b34801561020e57600080fd5b5061022d60048036038101908080359060200190929190505050610bcb565b604051808a81526020018981526020018881526020018781526020018681526020018573ffffffffffffffffffffffffffffffffffffffff1673ffffffffffffffffffffffffffffffffffffffff1681526020018481526020018373ffffffffffffffffffffffffffffffffffffffff1673ffffffffffffffffffffffffffffffffffffffff16815260200182151515158152602001995050505050505050505060405180910390f35b3480156102e357600080fd5b506102ec610c66565b6040518082815260200191505060405180910390f35b34801561030e57600080fd5b50610317610c6c565b604051808273ffffffffffffffffffffffffffffffffffffffff1673ffffffffffffffffffffffffffffffffffffffff16815260200191505060405180910390f35b61037760048036038101908080359060200190929190505050610c91565b005b34801561038557600080fd5b506103a460048036038101908080359060200190929190505050610d80565b6040518080602001806020018660001916600019168152602001858152602001848152602001838103835288818151815260200191508051906020019080838360005b838110156104025780820151818401526020810190506103e7565b50505050905090810190601f16801561042f5780820380516001836020036101000a031916815260200191505b50838103825287818151815260200191508051906020019080838360005b8381101561046857808201518184015260208101905061044d565b50505050905090810190601f1680156104955780820380516001836020036101000a031916815260200191505b5097505050505050505060405180910390f35b6104c660048036038101908080359060200190929190505050610ee6565b005b3480156104d457600080fd5b506104dd61104e565b6040518082815260200191505060405180910390f35b60036000836000191660001916815260200190815260200160002060009054906101000a900460ff1615151561052857600080fd5b600260008154809291906001019190505550826001600060025481526020019081526020016000206000019080519060200190610566929190611054565b508160016000600254815260200190815260200160002060020181600019169055508060016000600254815260200190815260200160002060010190805190602001906105b4929190611054565b5060006001600060025481526020019081526020016000206003018190555033600160006002548152602001908152602001600020600401600080815260200190815260200160002060006101000a81548173ffffffffffffffffffffffffffffffffffffffff021916908373ffffffffffffffffffffffffffffffffffffffff160217905550600160036000846000191660001916815260200190815260200160002060006101000a81548160ff021916908315150217905550505050565b6004600082815260200190815260200160002060090160009054906101000a900460ff16801561070657503373ffffffffffffffffffffffffffffffffffffffff166004600083815260200190815260200160002060070160009054906101000a900473ffffffffffffffffffffffffffffffffffffffff1673ffffffffffffffffffffffffffffffffffffffff1614155b151561071157600080fd5b3373ffffffffffffffffffffffffffffffffffffffff166108fc6004600084815260200190815260200160002060080160003373ffffffffffffffffffffffffffffffffffffffff1673ffffffffffffffffffffffffffffffffffffffff168152602001908152602001600020549081150290604051600060405180830381858888f193505050501580156107aa573d6000803e3d6000fd5b5060006004600083815260200190815260200160002060080160003373ffffffffffffffffffffffffffffffffffffffff1673ffffffffffffffffffffffffffffffffffffffff1681526020019081526020016000208190555050565b6004600082815260200190815260200160002060020154600460008381526020019081526020016000206001015442031115610a6d5760016000600460008481526020019081526020016000206000015481526020019081526020016000206004016000600160006004600086815260200190815260200160002060000154815260200190815260200160002060030154815260200190815260200160002060009054906101000a900473ffffffffffffffffffffffffffffffffffffffff1673ffffffffffffffffffffffffffffffffffffffff166108fc60046000848152602001908152602001600020600601549081150290604051600060405180830381858888f19350505050158015610922573d6000803e3d6000fd5b506001600060046000848152602001908152602001600020600001548152602001908152602001600020600301600081548092919060010191905055506004600082815260200190815260200160002060070160009054906101000a900473ffffffffffffffffffffffffffffffffffffffff1660016000600460008581526020019081526020016000206000015481526020019081526020016000206004016000600160006004600087815260200190815260200160002060000154815260200190815260200160002060030154815260200190815260200160002060006101000a81548173ffffffffffffffffffffffffffffffffffffffff021916908373ffffffffffffffffffffffffffffffffffffffff16021790555060016004600083815260200190815260200160002060090160006101000a81548160ff0219169083151502179055505b50565b6001600083815260200190815260200160002060040160006001600085815260200190815260200160002060030154815260200190815260200160002060009054906101000a900473ffffffffffffffffffffffffffffffffffffffff1673ffffffffffffffffffffffffffffffffffffffff163373ffffffffffffffffffffffffffffffffffffffff16141515610b0757600080fd5b600560008154809291906001019190505550816004600060055481526020019081526020016000206000018190555080600460006005548152602001908152602001600020600201819055503360046000600554815260200190815260200160002060050160006101000a81548173ffffffffffffffffffffffffffffffffffffffff021916908373ffffffffffffffffffffffffffffffffffffffff16021790555042600460006005548152602001908152602001600020600101819055505050565b60046020528060005260406000206000915090508060000154908060010154908060020154908060030154908060040154908060050160009054906101000a900473ffffffffffffffffffffffffffffffffffffffff16908060060154908060070160009054906101000a900473ffffffffffffffffffffffffffffffffffffffff16908060090160009054906101000a900460ff16905089565b60055481565b6000809054906101000a900473ffffffffffffffffffffffffffffffffffffffff1681565b600460008281526020019081526020016000206006015434111515610cb557600080fd5b336004600083815260200190815260200160002060070160006101000a81548173ffffffffffffffffffffffffffffffffffffffff021916908373ffffffffffffffffffffffffffffffffffffffff160217905550346004600083815260200190815260200160002060060181905550346004600083815260200190815260200160002060080160003373ffffffffffffffffffffffffffffffffffffffff1673ffffffffffffffffffffffffffffffffffffffff1681526020019081526020016000208190555050565b6001602052806000526040600020600091509050806000018054600181600116156101000203166002900480601f016020809104026020016040519081016040528092919081815260200182805460018160011615610100020316600290048015610e2c5780601f10610e0157610100808354040283529160200191610e2c565b820191906000526020600020905b815481529060010190602001808311610e0f57829003601f168201915b505050505090806001018054600181600116156101000203166002900480601f016020809104026020016040519081016040528092919081815260200182805460018160011615610100020316600290048015610eca5780601f10610e9f57610100808354040283529160200191610eca565b820191906000526020600020905b815481529060010190602001808311610ead57829003601f168201915b5050505050908060020154908060030154908060050154905085565b600160008281526020019081526020016000206005015434141561104b576001600082815260200190815260200160002060040160006001600084815260200190815260200160002060030154815260200190815260200160002060009054906101000a900473ffffffffffffffffffffffffffffffffffffffff1673ffffffffffffffffffffffffffffffffffffffff166108fc349081150290604051600060405180830381858888f19350505050158015610fa7573d6000803e3d6000fd5b506001600082815260200190815260200160002060030160008154809291906001019190505550336001600083815260200190815260200160002060040160006001600085815260200190815260200160002060030154815260200190815260200160002060006101000a81548173ffffffffffffffffffffffffffffffffffffffff021916908373ffffffffffffffffffffffffffffffffffffffff1602179055505b50565b60025481565b828054600181600116156101000203166002900490600052602060002090601f016020900481019282601f1061109557805160ff19168380011785556110c3565b828001600101855582156110c3579182015b828111156110c25782518255916020019190600101906110a7565b5b5090506110d091906110d4565b5090565b6110f691905b808211156110f25760008160009055506001016110da565b5090565b905600a165627a7a723058204f0f2b6b539d5709c4de237cc8addcd5a81e3b0f46526e0f392abc7ad30f706c0029",
  "source": "pragma solidity ^0.4.24;\n\n  contract ArtMarket {\n  address public owner;\n\n  struct Item {\n    string title;\n    string blockstackUrl;\n    bytes32 hash;   //can also be used as a pointer to the item in IPFS storage\n    uint ownerIndex;\n    mapping (uint => address) owners;\n    uint price;\n  }\n  mapping (uint => Item) public items;\n  int public itemIndex = -1;\n\n  mapping(bytes32 => bool) itemExists;\n\n  struct Auction {\n    uint itemID;\n    uint created;\n    uint duration;\n    uint reserve;\n    uint increment;\n    address curator;\n    uint highestBid;\n    address highestBidder;\n    mapping(address => uint) bids;\n    bool closed;\n  }\n  mapping (uint => Auction) public auctions;\n  int public auctionIndex = -1;\n\n  constructor() public {\n    owner = msg.sender;\n  }\n\n  //blockstackUrl is empty if the item is stored on IPFS\n  function addItem(string title, bytes32 hash, string blockstackUrl) public {\n    require(!itemExists[hash]);\n    itemIndex++;\n    items[uint(itemIndex)].title = title;\n    items[uint(itemIndex)].hash = hash;\n    items[uint(itemIndex)].blockstackUrl = blockstackUrl;\n    items[uint(itemIndex)].ownerIndex = 0;\n    items[uint(itemIndex)].owners[0] = msg.sender;\n    itemExists[hash] = true;\n  }\n\n  function buy(uint itemID) payable public {\n    if(msg.value == items[itemID].price) {\n     items[itemID].owners[items[itemID].ownerIndex].transfer(msg.value);\n     items[itemID].ownerIndex++;\n     items[itemID].owners[items[itemID].ownerIndex] = msg.sender;\n    }\n  }\n\n  function startAuction(uint itemID, uint duration) public {\n    require(msg.sender == items[itemID].owners[items[itemID].ownerIndex]);  //only possible to auction items you own\n    auctionIndex++;\n    auctions[uint(auctionIndex)].itemID = itemID;\n    auctions[uint(auctionIndex)].duration = duration;\n    auctions[uint(auctionIndex)].curator = msg.sender;\n    auctions[uint(auctionIndex)].created = now;\n  }\n\n  function closeAuction(uint auctionID) public {\n    if(now - auctions[auctionID].created > auctions[auctionID].duration) {\n     items[auctions[auctionID].itemID].owners[items[auctions[auctionID].itemID].ownerIndex].transfer(auctions[auctionID].highestBid);\n     items[auctions[auctionID].itemID].ownerIndex++;\n     items[auctions[auctionID].itemID].owners[items[auctions[auctionID].itemID].ownerIndex]= auctions[auctionID].highestBidder;\n     auctions[auctionID].closed = true;\n    }\n  }\n\n  function reclaimEscrow(uint auctionID) public {\n   require(auctions[auctionID].closed && auctions[auctionID].highestBidder != msg.sender);\n   msg.sender.transfer(auctions[auctionID].bids[msg.sender]);\n   auctions[auctionID].bids[msg.sender] = 0;\n  }\n\n  function placeBid(uint auctionID) payable public {\n    require(msg.value > auctions[auctionID].highestBid);\n    auctions[auctionID].highestBidder = msg.sender;\n    auctions[auctionID].highestBid = msg.value;\n    auctions[auctionID].bids[msg.sender] = msg.value;\n  }\n}\n",
  "sourcePath": "/Users/mikey/hubgit/brightblock/brightblock-ui/contracts/ArtMarket.sol",
  "compiler": {
    "name": "solc",
    "version": "0.4.24+commit.e67f0147.Emscripten.clang"
  },
  "schemaVersion": "2.0.1",
  "updatedAt": "2018-09-05T09:43:44.723Z"
}